{
  "contractName": "IT4320",
  "abi": [
    {
      "constant": true,
      "inputs": [],
      "name": "number_win",
      "outputs": [
        {
          "name": "",
          "type": "uint256"
        }
      ],
      "payable": false,
      "stateMutability": "view",
      "type": "function"
    },
    {
      "inputs": [],
      "payable": true,
      "stateMutability": "payable",
      "type": "constructor"
    },
    {
      "payable": true,
      "stateMutability": "payable",
      "type": "fallback"
    },
    {
      "anonymous": false,
      "inputs": [
        {
          "indexed": false,
          "name": "number",
          "type": "uint256"
        },
        {
          "indexed": false,
          "name": "time",
          "type": "string"
        }
      ],
      "name": "history_game",
      "type": "event"
    },
    {
      "constant": true,
      "inputs": [],
      "name": "getBalance",
      "outputs": [
        {
          "name": "",
          "type": "uint256"
        }
      ],
      "payable": false,
      "stateMutability": "view",
      "type": "function"
    },
    {
      "constant": false,
      "inputs": [
        {
          "name": "_number",
          "type": "uint256"
        }
      ],
      "name": "set_number_win",
      "outputs": [],
      "payable": false,
      "stateMutability": "nonpayable",
      "type": "function"
    },
    {
      "constant": false,
      "inputs": [
        {
          "name": "_number",
          "type": "uint256"
        },
        {
          "name": "_to",
          "type": "address"
        },
        {
          "name": "_amount",
          "type": "uint256"
        }
      ],
      "name": "submit",
      "outputs": [],
      "payable": false,
      "stateMutability": "nonpayable",
      "type": "function"
    }
  ],
  "bytecode": "0x608060405233600160006101000a81548173ffffffffffffffffffffffffffffffffffffffff021916908373ffffffffffffffffffffffffffffffffffffffff1602179055506101ee806100546000396000f3fe60806040526004361061003f5760003560e01c806312065fe014610041578063182674851461006c5780632889c2d4146100975780633645900d146100fc575b005b34801561004d57600080fd5b50610056610137565b6040518082815260200191505060405180910390f35b34801561007857600080fd5b50610081610156565b6040518082815260200191505060405180910390f35b3480156100a357600080fd5b506100fa600480360360608110156100ba57600080fd5b8101908080359060200190929190803573ffffffffffffffffffffffffffffffffffffffff1690602001909291908035906020019092919050505061015c565b005b34801561010857600080fd5b506101356004803603602081101561011f57600080fd5b81019080803590602001909291905050506101b8565b005b60003073ffffffffffffffffffffffffffffffffffffffff1631905090565b60005481565b82806000541461016b57600080fd5b8273ffffffffffffffffffffffffffffffffffffffff166108fc839081150290604051600060405180830381858888f193505050501580156101b1573d6000803e3d6000fd5b5050505050565b806000819055505056fea165627a7a7230582023d5f768ba4401cb580f1062072aadb733c17759df5c7229657387f6080abf600029",
  "source": "pragma solidity ^0.5.0;\r\n// đây là smart chơi lô đề dùng cho môn an toàn giao dịch điện tử\r\ncontract IT4320{\r\n    event history_game(uint number,string time);\r\n    uint public number_win;\r\n    address payable owner;\r\n    \r\n    \r\n    modifier checkWin(uint _number) {\r\n        require(number_win == _number);\r\n        _;\r\n    }\r\n    constructor() public payable{\r\n        owner = msg.sender;\r\n    }\r\n    function() payable external {\r\n        \r\n    }   \r\n    function getBalance() public view returns (uint256) {\r\n        return address(this).balance;\r\n    }\r\n    function set_number_win(uint _number) public {\r\n        number_win = _number;\r\n    }\r\n    function submit(uint _number,address payable _to, uint _amount)  public  checkWin(_number)   {\r\n       address(_to).transfer(_amount);\r\n    }\r\n}\r\n    ",
  "sourcePath": "C:/Users/admin/Desktop/ETH/contracts/IT4320.sol",
  "compiler": {
    "name": "solc",
    "version": "0.5.8+commit.23d335f2.Emscripten.clang"
  },
  "schemaVersion": "3.0.16",
  "updatedAt": "2019-12-04T06:35:28.066Z",
  "devdoc": {
    "methods": {}
  },
  "userdoc": {
    "methods": {}
  }
}